:100000000C94E0000C9408010C9408010C94080175
:100010000C9408010C9408010C9408010C9408013C
:100020000C9408010C9408010C9408010C9408012C
:100030000C9408010C9408010C9408010C9408011C
:100040000C94C0040C9408010C948E040C94680465
:100050000C9408010C9408010C9408010C940801FC
:100060000C9408010C9408010000000023002600F5
:10007000290000000008000201000003040700003E
:10008000000000000000556E6B6E6F776E20747973
:1000900070650053414B20696E64696361746573D8
:1000A00020554944206973206E6F7420636F6D7012
:1000B0006C6574652E004D494641524520544E50A2
:1000C00033585858004D494641524520506C75737D
:1000D000004D494641524520556C7472616C696708
:1000E0006874206F7220556C7472616C69676874F3
:1000F0002043004D494641524520344B42004D4972
:100100004641524520314B42004D4946415245201F
:100110004D696E692C20333230206279746573002A
:100120005049434320636F6D706C69616E74207732
:100130006974682049534F2F49454320313830397D
:100140003220284E464329005049434320636F6DB7
:10015000706C69616E7420776974682049534F2F01
:100160004945432031343434332D3400504943431E
:1001700020747970653A20004361726420554944C7
:100180003A0000000000250028002B0000000000BD
:10019000240027002A0004040404040404040202C6
:1001A00002020202030303030303010204081020F6
:1001B00040800102040810200102040810200A05F2
:1001C00011241FBECFEFD8E0DEBFCDBF11E0A0E00D
:1001D000B1E0E6E3F0E102C005900D92AA31B1076B
:1001E000D9F721E0AAE1B1E001C01D92AF3CB2070E
:1001F000E1F710E0C0EED0E004C02197FE010E94BC
:100200001308CF3DD107C9F70E9453050C94190874
:100210000C94000090E0FC01E655FE4F24918A56B4
:100220009E4FFC018491882399F090E0880F991FDC
:10023000FC01E457FE4FA591B491FC01EE57FE4F2F
:10024000859194918FB7F894EC91E22BEC938FBF4A
:100250000895AF92BF92CF92DF92EF92FF920F93E9
:100260001F93CF93DF936C017B018B01040F151F4C
:10027000EB015E01AE18BF08C017D10759F06991B4
:10028000D601ED91FC910190F081E02DC601099518
:10029000892B79F7C501DF91CF911F910F91FF90C5
:1002A000EF90DF90CF90BF90AF900895FC01538DF9
:1002B000448D252F30E0842F90E0821B930B541740
:1002C00010F0CF96089501970895FC01918D828DCD
:1002D000981761F0A28DAE0FBF2FB11D5D968C9166
:1002E000928D9F5F9F73928F90E008958FEF9FEFA5
:1002F0000895FC01918D828D981731F0828DE80F61
:10030000F11D858D90E008958FEF9FEF0895FC011A
:10031000918D228D892F90E0805C9F4F821B9109E7
:100320008F739927089584E291E00E94870121E06C
:10033000892B09F420E0822F089580E090E0892B3A
:1003400029F00E94930181110C9400000895FC0192
:10035000A48DA80FB92FB11DA35ABF4F2C91848D26
:1003600090E001968F739927848FA689B7892C9383
:10037000A089B1898C91837080648C93938D848DD6
:10038000981306C00288F389E02D80818F7D8083D9
:100390000895EF92FF920F931F93CF93DF93EC0199
:1003A00081E0888F9B8D8C8D98131AC0E889F9891C
:1003B000808185FF15C09FB7F894EE89FF8960831F
:1003C000E889F98980818370806480839FBF81E0A0
:1003D00090E0DF91CF911F910F91FF90EF900895E2
:1003E000F62E0B8D10E00F5F1F4F0F731127E02EBD
:1003F0008C8D8E110CC00FB607FCFACFE889F989F5
:10040000808185FFF5CFCE010E94A701F1CFEB8D52
:10041000EC0FFD2FF11DE35AFF4FF0829FB7F894C8
:100420000B8FEA89FB8980818062CFCF0F931F9366
:10043000CF93DF938C01D0E0C0E0F801EC0FFD1FFB
:100440006491662341F084E291E00E94C901892B06
:1004500011F02196F2CFCE01DF91CF911F910F9134
:100460000895CF93DF93EC01888D8823B9F0AA8992
:10047000BB89E889F9898C9185FD03C0808186FD5F
:100480000DC00FB607FCF7CF8C9185FFF2CF8081AE
:1004900085FFEDCFCE010E94A701E9CFDF91CF917B
:1004A0000895833081F028F4813099F08230A9F0EA
:1004B00008958730A9F08830C9F08430B1F4809174
:1004C00080008F7D03C0809180008F7780938000B3
:1004D000089584B58F7784BD089584B58F7DFBCF53
:1004E0008091B0008F778093B00008958091B00024
:1004F0008F7DF9CF1F93CF93DF93282F30E0F90141
:10050000EE58FF4F8491F901E655FE4FD491F90161
:10051000EA56FE4FC491CC23A9F0162F81110E94F8
:100520005102EC2FF0E0EE0FFF1FEE57FE4FA591AA
:10053000B4918FB7F894EC91111108C0D095DE23D7
:10054000DC938FBFDF91CF911F910895DE2BF8CF01
:100550003FB7F89480911F0190912001A091210153
:10056000B091220126B5A89B05C02F3F19F0019636
:10057000A11DB11D3FBFBA2FA92F982F8827BC01FD
:10058000CD01620F711D811D911D42E0660F771F25
:10059000881F991F4A95D1F708958F929F92AF9225
:1005A000BF92CF92DF92EF92FF924B015C010E94CB
:1005B000A8026B017C010E94A8026C197D098E09BA
:1005C0009F09683E734081059105A8F321E0821AD6
:1005D0009108A108B10888EEC80E83E0D81EE11C7E
:1005E000F11C81149104A104B10429F7FF90EF904C
:1005F000DF90CF90BF90AF909F908F9008958EBD69
:1006000000000DB407FEFDCF8EB508950F931F9324
:10061000CF93DF93082F162FC1ECD1E060E08C85DB
:100620000E947A02802F0E94FF02812F0E94FF0207
:1006300061E08C85DF91CF911F910F910C947A022C
:100640001F93CF93DF93182FC1ECD1E060E08C852E
:100650000E947A02812F80680E94FF0280E00E943F
:10066000FF02182F61E08C850E947A02812FDF91B2
:10067000CF911F910895CF93C82F0E942003682F18
:1006800060688C2FCF910C940603FF920F931F93F9
:10069000CF93DF93082FF62E172F60E08091CD01C6
:1006A0000E947A0282E10E94FF02CF2DD12F0C0F0F
:1006B0001D2F111DC017D10721F089910E94FF0243
:1006C000F9CF61E08091CD01DF91CF911F910F9122
:1006D000FF900C947A02EF92FF920F931F93CF93A7
:1006E000DF937C01C62F8A0160E082E00E9406034E
:1006F00064E08AE00E94060384E10E943B03B701A4
:100700008C2F0E94450363E082E00E940603C8E844
:10071000D3E18AE00E94200382FD04C02197C9F73B
:1007200084E00FC060E082E00E94060384E40E943F
:100730002003F801808382E40E942003F801818372
:1007400081E0DF91CF911F910F91FF90EF9008957D
:10075000FC0101900020E9F73197AF01481B590BCC
:10076000BC0184E291E00C9429017F928F929F92C8
:10077000AF92BF92CF92DF92EF92FF920F931F93AF
:10078000CF93DF93EC01962E6A015901FE2CF2946F
:1007900090EFF922F8018081F80E60E082E00E947B
:1007A00006036FE788E00E94060384E10E943B0392
:1007B000BE01892D0E9445036F2D8AE10E94060328
:1007C0006CE082E00E9406038AE10E943B03C0EDD8
:1007D000D7E088E00E942003982F907399F480FD61
:1007E00002C02197B1F784E0DF91CF911F910F9163
:1007F000FF90EF90DF90CF90BF90AF909F908F9041
:100800007F9008958CE00E942003782E837109F078
:100810005BC084E10E942003D82FF50180818D17F1
:1008200008F454C0D083DD2309F443C060E0809114
:10083000CD010E947A02D15082E90E94FF02560146
:10084000F12C88248394912CFD1638F5F11020C0EA
:10085000EE20F1F08E2D90E0C0E0883048F4940155
:10086000082E01C0220F0A94EAF7C22B0196F5CF99
:1008700082E90E94FF029C2F9095F601208192232D
:100880008C23892B8083F394FFEFAF1ABF0ADCCF50
:1008900082E90E94FF02F501F5CFCD0ED11C80E068
:1008A0000E94FF02F601808361E08091CD010E94E9
:1008B0007A0288E10E9420038770F801808383E038
:1008C00073FC92CF81E090CF82E08ECF85E08CCF19
:1008D0001F920F920FB60F9211242F933F934F93B5
:1008E0005F936F937F938F939F93AF93BF93EF9398
:1008F000FF9384E291E00E94A701FF91EF91BF91E5
:10090000AF919F918F917F916F915F914F913F91A7
:100910002F910F900FBE0F901F9018951F920F925E
:100920000FB60F9211242F938F939F93EF93FF9302
:10093000E0913401F09135018081E0913A01F0912C
:100940003B0182FD1BC0908180913D018F5F8F73C1
:1009500020913E01821741F0E0913D01F0E0EC5D15
:10096000FE4F958F80933D01FF91EF919F918F9165
:100970002F910F900FBE0F901F9018958081F4CF8C
:100980001F920F920FB60F9211242F933F938F93C4
:100990009F93AF93BF9380911B0190911C01A091F5
:1009A0001D01B0911E0130911A0123E0230F2D3754
:1009B00058F50196A11DB11D20931A0180931B01CA
:1009C00090931C01A0931D01B0931E0180911F0103
:1009D00090912001A0912101B09122010196A11DC9
:1009E000B11D80931F0190932001A0932101B0932A
:1009F0002201BF91AF919F918F913F912F910F90C5
:100A00000FBE0F901F90189526E8230F0296A11D88
:100A1000B11DD2CFCF93DF93E4E2F1E013821282D3
:100A200088EE93E0A0E0B0E084839583A683B7834B
:100A300084E091E09183808385EC90E095878487C2
:100A400084EC90E09787868780EC90E0918B808B98
:100A500081EC90E0938B828B82EC90E0958B848B81
:100A600086EC90E0978B868B118E128E138E148EEF
:100A7000C1ECD1E08AE08C870E940A0161E08C859C
:100A80000E947A0289E08D870E940A0160E08D85CC
:100A90000E947A028CB58F7D8CBD8CB5837F8CBD16
:100AA000DF91CF910895CF93DF93CDB7DEB7A497B1
:100AB0000FB6F894DEBF0FBECDBF789484B58260C8
:100AC00084BD84B5816084BD85B5826085BD85B5F2
:100AD000816085BD80916E00816080936E00109270
:100AE00081008091810082608093810080918100EB
:100AF000816080938100809180008160809380007C
:100B00008091B10084608093B1008091B0008160D9
:100B10008093B00080917A00846080937A00809105
:100B20007A00826080937A0080917A00816080935D
:100B30007A0080917A00806880937A001092C100D8
:100B4000E0913401F091350182E08083E091300141
:100B5000F09131011082E0913201F09133018FEC7C
:100B6000808310923C01E0913801F091390186E0D8
:100B70008083E0913601F09137018081806180832C
:100B8000E0913601F0913701808188608083E091A7
:100B90003601F0913701808180688083E0913601D1
:100BA000F091370180818F7D80831FB7F894809109
:100BB0002301811124C0E0EAF1E08491E4EBF1E04B
:100BC0009491E82FF0E0EE0FFF1FE457FE4FA59140
:100BD000B491EC91E92321F461E08AE00E947A0269
:100BE0008AE00E940A018CB580618CBD8CB580645E
:100BF0008CBD8DE00E940A018BE00E940A01809169
:100C000023018F5F809323011FBF2091CE0130E02D
:100C1000F901EE58FF4F8491F901E655FE4F04911A
:100C2000F901EA56FE4F14911123F1F081110E944F
:100C30005102E12FF0E0EE0FFF1FE859FF4FA591A1
:100C4000B491EC910E2381F06FE082E00E940603E4
:100C500062E370E080E090E00E94CD0282E00E94BA
:100C6000200384FDFBCF0BC061E08091CE010E9488
:100C70007A0262E370E080E090E00E94CD0260E8DA
:100C800084E50E94060369EA86E50E94060363E0A4
:100C900088E50E94060368EE8AE50E94060360E488
:100CA0008AE20E9406036DE382E20E94060388E264
:100CB0000E942003982F9370933029F0682F63606F
:100CC00088E20E940603CC24C394D12C82E08BA33B
:100CD00086E28CA38CE10E942003682F6F778CE161
:100CE0000E94060387E08AA3E12C8E010E5D1F4F50
:100CF0009E012D5D3F4FAE014F5F5F4F61E0CE0122
:100D000084960E94B503813089F48BA1823019F456
:100D10008AA1882369F080E090E0892BB9F20E94D3
:100D20009301882399F20E940000D0CF833099F775
:100D30008CE10E942003682F6F778CE10E940603EC
:100D4000E0E77E2E83E98983AA24A394F12C73E043
:100D5000672EB12C59E0552E9B2D97709BA38B2DA0
:100D60008595859585958E5F282F2295207F290F63
:100D70002A8321E0911101C020E0422E480E8824F0
:100D80008394912C8C0E9D1E880E911C552D581B02
:100D90005AA326C085E98983DCCF87E9898366E089
:100DA000F62ED7CF7A828B819C8189279D818927D6
:100DB0009E8189278F83AE01485F5F4F67E0CE0138
:100DC00001960E946B03813009F0A5CF1BA26AA295
:100DD00039E0432EAE01495F5F4F4A0140E2B42E35
:100DE000EBA06E2D6295607F6E0D8AE10E94060376
:100DF0008E010D5D1F4F9E012E5D3F4FA401642D9E
:100E0000CE0101960E94B5038330A1F58CE10E94CA
:100E1000200385FD80CF8F7109F480E2282F30E018
:100E20004B2DBB0C550B421753070CF074CFB82E4B
:100E30002150310927703327E82FE595E595E59591
:100E4000EF5F91E0211101C090E0E90F41E050E037
:100E50004C0F5D1F4E0F511DFA01A60102C0440F39
:100E6000551F2A95E2F79081942B9083803209F0E8
:100E700073CF98CF813009F04ECF50E2B51292CFA8
:100E80008B81883809F03CC083E093E0EF2DF0E0DF
:100E9000EE53FE4F980FA1E0B0E0AC0FBD1FA80FBE
:100EA000B11D2C9121938F5F8913F5CFFAA083E0B8
:100EB000F81231CFBBA0B1102ECFAE014D5F5F4F06
:100EC00061E0C4010E946B03813009F024CF9B8153
:100ED000F401818198131FCF9C81828198131BCFCD
:100EE000808182FF10C0A394F2E0AF1609F452CFC4
:100EF00043E0A41609F451CF51E0A5120CCF22CF44
:100F000082E094E0C3CF8093CC018A2D880FA80E95
:100F1000A394A092C10188E791E00E941602F0908C
:100F2000C10102EC11E0FB1499F14801F801808144
:100F3000803108F475C082E191E00E94A8030F5F40
:100F40001F4FF401408150E070E060E019A2FE0103
:100F5000B196DB01CA018F709927AA27BB2794E0BD
:100F600076956795579547959A95D1F78A3074F499
:100F7000805D8293411551056105710551F73097E8
:100F800019F0CF010E94A803B394CDCF895CF1CFB3
:100F900087E191E00E94A8038CE691E00E9416028E
:100FA0008091CC0182FD30C0893059F160F48130EC
:100FB00099F008F1883011F185FD2CC086FD2DC017
:100FC00086E890E00BC08031B8F3823100F18831BF
:100FD00099F783EF90E002C086EB90E00E94160242
:100FE00087E191E00E94A80360ED77E080E090E067
:100FF0000E94CD0290CE81ED90E0F0CF8EEF90E098
:10100000EDCF89E091E0EACF83E990E0E7CF85EC8E
:1010100090E0E4CF88E491E0E1CF80E291E0DECFA0
:1010200084E191E08ACFEE0FFF1F0590F491E02D4F
:061030000994F894FFCFC3
:1010360000000000C901290156013102870165013E
:0A104600790120002030000D0A009F
:00000001FF
